:1000000000180020C1000000792000000D1E000033
:100010000D1E00000D1E00000D1E00000D1E000034
:100020000D1E00000D1E00000D1E000079200000B6
:10003000792000000D1E0000391300002913000074
:10004000792000007920000079200000792000004C
:10005000792000007920000079200000792000003C
:10006000792000007920000079200000792000002C
:1000700095240000E52300004523000079200000BE
:10008000792000007920000079200000792000000C
:1000900079200000792000007920000079200000FC
:1000A00095170000792000007920000079200000D9
:1000B00079200000792000007920000079200000DC
:1000C000F0B5002247460821474B80B41A60474AE2
:1000D000474B1A60474A484B1A60484A484B1A60D7
:1000E000484B1A780A4202D01A780A431A702A2218
:1000F000454B464C1A700023454846491A1982421E
:1001000003D2CD5804331560F8E70022424B43492F
:100110008B4201D204C3FBE70023414A4149C8583E
:10012000904698500433C02BF9D100220327FF26B4
:1001300080253D4930008C4611003940C900884077
:1001400093089B0063441C680132844320002C0008
:100150008C40210001431960202AEAD14246334BEA
:100160001A608A22324B1A70324B663A5A707C32CD
:100170001A709E3A99791142FCD010229979114255
:10018000FCD10C209A792B490240082AFAD1053A71
:100190000A713D324A71203A99791142FCD04022CD
:1001A00099791142FCD02449244A11602021214A26
:1001B000117014399A790A400C2AFBD1204A214B3C
:1001C0001A60214A214B1A600022214B1A60214BF0
:1001D00007321A60204A214B1A6062B601F0DCFF38
:1001E00002F0EAFA00F044F900810440300004F023
:1001F00034800440823F0000388004400100000F3A
:100200003C80044002D0074000E0074040FEFF1F52
:10021000DC030020B43B0000DC0300208808002041
:1002200000F9FF1F0000000000E400E008ED00E01E
:100230000050064000400640000001104480044089
:10024000C0000505048004407FBB000014E000E00E
:1002500018E000E010E000E00000202020ED00E0C9
:10026000FFFFFFFFFFFFFFFFFFFFFFFFFFFFFFFF9E
:10027000FFFFFFFFFFFFFFFFFFFFFFFFFFFFFFFF8E
:10028000FFFFFFFFFFFFFFFFFFFFFFFFFFFFFFFF7E
:10029000FFFFFFFFFFFFFFFFFFFFFFFFFFFFFFFF6E
:1002A000FFFFFFFFFFFFFFFFFFFFFFFFFFFFFFFF5E
:1002B000FFFFFFFFFFFFFFFFFFFFFFFFFFFFFFFF4E
:1002C000FFFFFFFFFFFFFFFFFFFFFFFFFFFFFFFF3E
:1002D000FFFFFFFFFFFFFFFFFFFFFFFFFFFFFFFF2E
:1002E000FFFFFFFFFFFFFFFFFFFFFFFFFFFFFFFF1E
:1002F000FFFFFFFFFFFFFFFFFFFFFFFFFFFFFFFF0E
:10030000FFFFFFFFFFFFFFFFFFFFFFFFFFFFFFFFFD
:10031000FFFFFFFFFFFFFFFFFFFFFFFFFFFFFFFFED
:10032000FFFFFFFFFFFFFFFFFFFFFFFFFFFFFFFFDD
:10033000FFFFFFFFFFFFFFFFFFFFFFFFFFFFFFFFCD
:10034000FFFFFFFFFFFFFFFFFFFFFFFFFFFFFFFFBD
:10035000FFFFFFFFFFFFFFFFFFFFFFFFFFFFFFFFAD
:10036000FFFFFFFFFFFFFFFFFFFFFFFFFFFFFFFF9D
:10037000FFFFFFFFFFFFFFFFFFFFFFFFFFFFFFFF8D
:10038000FFFFFFFFFFFFFFFFFFFFFFFFFFFFFFFF7D
:10039000FFFFFFFFFFFFFFFFFFFFFFFFFFFFFFFF6D
:1003A000FFFFFFFFFFFFFFFFFFFFFFFFFFFFFFFF5D
:1003B000FFFFFFFFFFFFFFFFFFFFFFFFFFFFFFFF4D
:1003C000FFFFFFFFFFFFFFFFFFFFFFFFFFFFFFFF3D
:1003D000FFFFFFFFFFFFFFFFFFFFFFFFFFFFFFFF2D
:1003E000FFFFFFFFFFFFFFFFFFFFFFFFFFFFFFFF1D
:1003F000FFFFFFFFFFFFFFFFFFFFFFFFFFFFFFFF0D
:10040000FFFFFFFFFFFFFFFFFFFFFFFFDEF9FFFF23
:1004100010B5064C2378002B07D1054B002B02D0DA
:10042000044800E000BF0123237010BDDC0300205E
:1004300000000000B43B0000084B10B5002B03D0B7
:100440000749084800E000BF07480368002B00D1B7
:1004500010BD064B002BFBD09847F9E700000000C9
:10046000E0030020B43B0000DC030020000000009B
:10047000F0B544465F4656464D460023F0B4CD4A9B
:10048000CD4C137022788DB00A2A09D00A2222702E
:10049000C84A5278002A01D0C84A136001F026FEEB
:1004A000C44B5B78002B00D050E20522C34BC448FC
:1004B0001A60082304226370C24B0027197D0A26A4
:1004C0000A431A75A2222021520002600468BE4D20
:1004D0008C43046002201C7D20431875BB4B1A60BE
:1004E0001868884318604023B948047D2343037586
:1004F000B84BB94C1A601A688A431A60F4229446C1
:10050000AC4B634499460423FF3398462B781A2B4F
:100510000FD8AD495A008C46D21892006244116936
:10052000D0688C46127D017D91430175624641463B
:1005300011600A9A6760E2600B9A2681226100923C
:100540000022A2722268E3721268A4498A4200D093
:10055000F9E11A2B12D85A00D3189B4A9B009446F3
:100560006344DA68187D127C1040431E9841C0B283
:10057000002803D00323A27A1343A372984B0135BA
:100580005B6F0293029B63600523238114344C4507
:10059000BCD18C4A1B33107D20210343A22013754C
:1005A000904B40001860186888431860107D014225
:1005B00001D100F0A1FE11718B4F002301930121A5
:1005C0001940804B1A7D0423134200D088E27C4AF4
:1005D000002901D000F03FFD136802318B43136006
:1005E00001220221019B5B101340764A127D1142C9
:1005F00000D07AE2754A002B01D000F038FD136874
:100600008B4313604022019B9810714B197D0A4265
:1006100000D061E26F4A002801D000F022FD0221E3
:1006200013688B4313605023013BFDD1019A6F4B3C
:10063000944650336344009300239B46009B5A46E4
:100640001B789B009A46664B53449E6F674B7833EA
:10065000D35C272B00D9B7E1654AD35C9846FF2BC2
:1006600000D1B1E1534B5B78002B00D0BBE172B6F7
:10067000604B99464346B0461E004023334200D1AA
:10068000A4E14B4610221B6893434A4613603F2364
:100690001E400123584C26603B7762B672B6236831
:1006A0001B060ED43B7F8025002B03D1E5E73B7F63
:1006B000002BE2D062B601F0E7FF72B623681D425C
:1006C000F5D04E4B4646186800233B7762B6394B4F
:1006D0001B78184103F066F8311C02F0BBFE0021C4
:1006E000041C02F04FFA231C002800D175E1181CED
:1006F00003F036F8012827DD03F054F8404902F0F2
:1007000095FDFE21890502F051FA011CFE208005AD
:1007100002F0C2FB011CFE20800502F09BFE011CC2
:1007200002F044FAFE218905051C02F02BFA00288C
:1007300000D156E1FE218905201C02F077FD011C45
:10074000301C02F033FA061C254B53449E670123EC
:100750009C46009BE344083300935B46052B00D086
:100760006CE7019B01330193082B00D027E711337D
:100770001B4AFF33D6580F4B5B78002B01D000F09B
:10078000D7FC72B61B4B1C4D984643461A68102383
:100790001343424613600C232B600B3B3B7762B63E
:1007A00072B62B681B0637D43B7F8024002B2CD1DC
:1007B000EBE7C046F803002040FEFF1F24B00340D3
:1007C00008B00440800000F87038000004B0044015
:1007D000C00000F818C00440FC03002045140000CD
:1007E0007804002014B0044078050020703900001F
:1007F000F03900000CB0034000B0034010B00340DB
:10080000CDCCCC3D3B7F002BBFD062B601F03CFF8E
:1008100072B62B681C42F5D0C34B186800233B7797
:1008200062B6C24B1B78184102F0BCFF311C02F0CB
:1008300011FE0021041C02F0A5F9231C002801D19F
:1008400000F0B7FC181C02F08BFF012828DD02F035
:10085000A9FFB74902F0EAFCFE21890502F0A6F9DA
:10086000011CFE20800502F017FB011CFE20800504
:1008700002F0F0FD011C02F099F9FE218905051C2A
:1008800002F080F9002801D100F0CEFCFE2189059C
:10089000201C02F0CBFC011C301C02F087F9061C66
:1008A0008C23A44A5B00D65015002822F83B9946B9
:1008B0009446A14BB944634478359B464E460EE0BE
:1008C0004A8000224923FA544346337001239C4650
:1008D0009A4B04350136E3449D4200D11BE1FC21D3
:1008E0002868890502F062F902F03AFFC010C3B22D
:1008F000984633784345E9D05B46FE221B78D20305
:100900001B0413408E4A00061343FE22D2051040FA
:100910000343009301224923F96CFA54002900D1C2
:10092000A2E050230024FC544B8800985A1C9B00E2
:10093000CB1898600F2AC3D9402303200B8000F006
:1009400069FEFC64BDE72000904711E680237D4AE4
:1009500011681940FCD172B6744B5B78002B31D012
:10096000794B1F68794B1A68794BBA181E68794B16
:1009700092191D68784B52191868784B12181B6829
:10098000774DD21892B25208764B2A4392B21A602F
:10099000754B764A1B689C46754B1B681768754AF1
:1009A00063441668744ADB191068744A9B1912680C
:1009B0001B189B189BB25B082B43714A9BB21360B8
:1009C0005A4B597062B670E5002085E64B461022FE
:1009D0001B6813434A4613605BE680231B06E3183B
:1009E00085E6291CA8E6802256490B681340FCD1F5
:1009F00072B64E4A5278002A34D0534A544912688B
:100A00009446524A12680D68524962440C68524931
:100A1000521908685149121909681218521892B2ED
:100A20004F49520889460A434E4992B20A604E4ADB
:100A3000126894464E4A15684C4A654414684D4AFB
:100A40002C1910684C4A201811684C4A4118126839
:100A50008A18494692B252080A43494992B20A603A
:100A6000324A537062B602E6464B1B78002B00D127
:100A70002AE75023444C9A460DE0013C002C3AD022
:100A80005346FB5C002B36D101F0FEFD3D4B1B783D
:100A9000002B00D118E701F055FD0528EDD872B6FE
:100AA0003A4B1B681800994602F014F80F2826DC10
:100AB00080231B06C3404A469A431300334A1360FF
:100AC00062B6334BC1009C4600230918C90061443B
:100AD0000B604B60F96424E700281AD11A72A2E572
:100AE0002C4A002913D113727AE5002B0BD1022274
:100AF000284B1A7286E550230122FA54E4E662B6C6
:100B00000023FB64B9E70222224B1A717AE51371C4
:100B100066E51A7187E50123994600239A46043356
:100B20001D4E9B465EE0C04610B00340F803002017
:100B3000CDCCCC3D78040020F03900009405002095
:100B40000BB0000024B0034038B003403CB0034079
:100B500040B0034044B0034048B003404CB00340B1
:100B60000080FFFF2CB0034058B0034060B003404A
:100B70005CB0034064B0034068B003406CB0034015
:100B800030B003407C080020E1420000A8FFFF1FB6
:100B9000C0F9FF1F800000F8FC030020C84A526F14
:100BA0000792079A726002225340B3725A46514626
:100BB0001A4008295FD00121194202D1002A00D031
:100BC000C2E005221340052B00D150E14B460C2B0F
:100BD00000D1DFE001239C464B460133DBB299464E
:100BE000E24414365A46B37AB64993433268B37234
:100BF00012688A4200D05FE1F27A00201A2A0CD8EB
:100C000051008A18B04992008C466244D168107D28
:100C1000097C0840421E9041C0B201215A080A4096
:100C20009042BBD1A64A7168526F0692069A521A38
:100C300031898A42BAD301221A409042B6D0A04AE2
:100C4000F168526F0592059A7260012253400422A6
:100C500013439B4ADBB2526FB3720492049A521A46
:100C60003261974A5146526F0392039AF2605A4694
:100C70001A4008299FD107391942ABD1002AA9D0BF
:100C80000023B0461C0013E050230025FD544B8880
:100C900000985A1C9B00CB1898600F2A00D933E3A8
:100CA0004A8000234922BB540134292C00D129E376
:100CB000FE22864BD2032833E35CFE211B041A403C
:100CC0003B002033E35CC9051B060B401343804AFD
:100CD000F96C1A43009249230122FA540029D3D116
:100CE0007C4B1B78002BDFD07B4E0EE0013E002EAC
:100CF00000D110E35023FB5C002B00D00BE301F08C
:100D0000C3FC744B1B78002BCED001F01BFC0528D4
:100D1000ECD872B6714B1D68280001F0DBFE0F287D
:100D200000DDFCE280231B06C3409D436B4B1D602E
:100D300062B66B4BC1009C4600230918C900614490
:100D40000B604B60F9649FE75246604BF96C54337B
:100D5000D35CFE221B04D2031340624A1A43009262
:100D600049230122FA54002900D186E150230024AE
:100D7000FC544B8800985A1C9B00CB1898600F2A93
:100D800000D992E04A8049230022FA544B460C2BAA
:100D900000D01FE780231B069846FF230F259946A6
:100DA0007C6D002C00D100E12188628893089B00B3
:100DB000E31804329E688A4200D3CAE062802B00A6
:100DC00033401A00083A062A00D999E0360B2E4023
:100DD000082B00D117E1092B00D118E10A2B00D014
:100DE00019E10A2EDDD072B63F4B1A68344B5C6FA6
:100DF0003E4B1B6862B65B0104D5322191428941AA
:100E0000494264183A4B80269A1A3A4B02255343BA
:100E1000FA22920054439B0D1C19334BF604994659
:100E2000324B984672B64B461868254B596F43466D
:100E30001B6862B6334204D032228242924152424F
:100E400089182B4B2B4A1B1A5343FA2292004A4310
:100E50009B0D1B1B9B18284A934277D9012D00D16B
:100E6000E0E0FA239B009C4601256444DAE7524601
:100E7000164BF96C5433D35C1A04FE23DB03134086
:100E80001E4A1A43904649230122FA54002900D1F0
:100E900094E1502300244046FC544B885A1C9B008C
:100EA000CB1898600F2A00D86CE7402303200B80F2
:100EB00000F0B0FBFC6466E730009047B37AACE624
:100EC000780400204514000070380000F03900005C
:100ED0000BB000007C080020E1420000A8FFFF1FCB
:100EE000C0F9FF1F0990007F18E000E004ED00E06A
:100EF0007FBB000055550100E7030000088000009B
:100F00004A46310A981E0A40012846D9052B40D08E
:100F1000042B00D1EEE0581F022800D886E00F2BEA
:100F200000D060E7F72A38D8F02A00D187E15823AB
:100F3000FB5A002B00D156E73B2B00D953E7582230
:100F4000581CB852FB18043299544CE701F09CFB32
:100F500068E7CB4B4821E01A01F030FD0F2812D88A
:100F6000C84B1B78002B04D0C74B1B78002B00D03C
:100F70005DE172B64346C340C44A1268134300920F
:100F8000C24A136062B6042001F07AF80400786562
:100F900015E7F02A4AD9F72A48D0F13A0E2A00D9A3
:100FA00021E7BB4B92009B589F46B74B1B78002B09
:100FB00000D118E7042001F063F8041E786500D121
:100FC00011E70188002900D0EFE6AD4B4831C01A87
:100FD00001F0F4FC0F2813D8AA4B1B78002B04D087
:100FE000A94B1B78002B00D082E172B680231B0630
:100FF000C340A64A126813430092A44A136062B623
:1010000000237B65EFE6082E00D0ECE6C9E6092E4A
:1010100000D0E8E6C5E60B2B00D013E10B2E00D084
:10102000E1E6BEE601F030FBFFF7C7FA5822BA5AF4
:1010300000923B2A0BD8501C5C229346009A80B247
:101040008446B8185A468154052B00D000E100228E
:101050005823FA52A5E6032311680B431360FFF7E8
:10106000BFFA032311680B431360FFF7DCFA032375
:1010700011680B431360FFF7C5FA834B1B78002BF5
:1010800000D1A3E55023834C98460DE0013C002C91
:1010900028D04346FB5C002B24D101F0F5FA7A4BB3
:1010A0001B78002B00D191E501F04CFA0528EDD812
:1010B00072B6764B1D68280001F00CFD0F2815DC78
:1010C00080231B06C3409D43704B1D6062B66C4B72
:1010D000C1009C4600230918C90061440B604B60A5
:1010E000F96443E650230122FA546FE562B6002307
:1010F000FB64CBE758243A5B3B2A00D973E65C25B6
:10110000501CBB1880B25955310C3853C9B23C2819
:1011100000D168E6931C9BB238183B5341553C2BD9
:1011200000D160E603323A53FA18330E53555AE6AB
:10113000802259490B681340FCD172B6574A527845
:10114000002A33D0564A12689446564A1168564AC5
:1011500061441568554A49191468554A09191068B7
:10116000544A09181268544C891889B24908534ADC
:10117000214389B21160524A524912689046524A3C
:1011800012689446514AC44412680D68504962443A
:1011900008685049521909681218521892B2520838
:1011A00022434D4992B20A603C4A537062B6FFF73F
:1011B000E8FA80231B06E318FFF744FB324B1B7849
:1011C000002B00D102E5334C50250CE0013C002CF3
:1011D00088D07B5D002B85D101F056FA2A4B1B7815
:1011E000002B00D1F2E401F0ADF90528EED872B67B
:1011F000264B1B681800009301F06CFC0F281ADCCA
:1012000080231B06C340009A9A4313001F4A1360B1
:1012100062B61B4BC1009C4600230918C9006144FB
:101220000B604B60F96434E6291CFFF731FB2000AA
:1012300000F04CFAA7E662B60023FB64C6E7493328
:10124000FB5A79E60C2B49D10C2E00D0CBE5A8E552
:1012500061463C2900D1FAE6009A7918023292B22E
:1012600092465A46300C8854072B00D0EFE653467E
:10127000360E3C2B00D1EAE6FA185B46D654E6E679
:10128000C0F9FF1F7D0800207C080020A8FFFF1F79
:1012900034380000E142000024B00340F80300208D
:1012A00038B003403CB0034040B0034044B003407A
:1012B00048B003404CB003400080FFFF2CB0034017
:1012C00058B0034064B003405CB0034060B00340DA
:1012D00068B003406CB0034030B003400D2B03D125
:1012E0000D2E00D07FE55CE50E2E00D07BE558E5A5
:1012F000200000F0EBF983E6032219680A431A6024
:10130000FFF75AF9464665E4402303200B8000F0BE
:1013100081F9FD64C5E450230122FA54C4E462B6A5
:101320000023FB64E2E4C046024A13680133136001
:101330007047C046EC04002070B5EFF3108272B61F
:101340000C4C2068002811D0002543692360002B35
:1013500000D09D61002A00D162B645778368984726
:10136000EFF3108272B620680028EED1002A00D177
:1013700062B670BD10060020022270B50A4B0B4DFC
:101380001C792243D200AE1870605879C826002814
:1013900000D1403E09040E43AE500122504054405B
:1013A00058711C7170BDC0461006002000F8FF1F68
:1013B0007047C046CBB210B51A2B19D8FF2319407D
:1013C0004B0059181E4C89006018D2B24368012A9C
:1013D0000FD0042A1ED00C59007A217D814321753B
:1013E000002A13D0022A23D0032A25D000221A6013
:1013F00010BD0959027A0C7D22430A75A2222021D0
:1014000052001A601A688A431A60F1E70132FF320B
:101410001A60EDE70959027A0C7D22430A75A2226F
:1014200052001A601968253AFF3A0A431A60DFE74A
:101430000422FF321A60DBE7FF321A60D8E7C046A9
:101440007C380000C37A00201A2B0BD85A000649BA
:10145000D21893005A58CB18187A127C1040431EA9
:101460009841C0B27047C0467C38000070B572B673
:101470000C4D2C68200001F02DFB0F280EDC802382
:101480001B06C3409C432C6062B6C3001818064B71
:10149000C000C01800230360436070BD62B6002026
:1014A000FBE7C046A8FFFF1FC0F9FF1F10B501F002
:1014B00057F8002211001B4BD15098180832416098
:1014C000A02AF9D180201849C0020A6802430A60A4
:1014D0001A0A1649D2B20A701A0C1549D2B20A7009
:1014E000144A1B0E1370FF23134A00201370134A73
:1014F00013491370134A137001220A7012490870BD
:1015000012490A70124A116899430B0070210B436B
:10151000136080220F4B52041A6010220E4B1A7077
:1015200010BDC04600F8FF1F348004409C200740D7
:10153000B0200740B42007408020074088200740A3
:1015400094200740102007400021074084200740D6
:1015500018E400E000E100E008210740F8B54F463C
:1015600046460500C0B472B6244B254E1C68254B78
:1015700031681B6862B65B0104D53222A2429241F7
:1015800052428918002D34D01F4B80271C1B1F4B43
:10159000FF046343FA24A4004C439B0D1C19174B12
:1015A0009946184B984672B64B46186843463168C0
:1015B0001B6862B63B4204D03222824292415242C0
:1015C0008918114B114A1B1A5343FA2292004A43BD
:1015D0009B0D1B1B9B180E4A934207D9013D002D02
:1015E00007D0FA239B009C466444DCE701F04CF8EA
:1015F000D9E70CBC90469946F8BDC04618E000E01B
:10160000EC04002004ED00E07FBB00005555010014
:10161000E7030000421E10B5032A34D802238000DD
:101620001843194BC0001B1872B6184CA018007A4A
:1016300003280BD801F06CFA18040207052014E007
:101640000833022011E0083304200EE0104B920012
:10165000D058002801D1D15002E0A318DB685960AE
:10166000A218D16062B60EE00320A21810720A0020
:1016700008325A60C822180700D4403A0988090481
:101680000A431A6062B610BD00F8FF1F1006002062
:101690006408002070B50C4C237F002B12D1256A02
:1016A0006B883F2B06DC4022D21A0833E818002151
:1016B00001F0A6F8402329002B800120FFF7AAFFA4
:1016C0000023236270BDC04610060020F8B572B634
:1016D000012208269446164F164C531EFB5C3342DB
:1016E0001BD051010D599300002D05D1631808300E
:1016F0005860114B63500AE061460B43DB001959F7
:1017000000290AD1E218083050600C4AE2500C4A15
:101710001378013B137062B608E00132052ADCD170
:1017200062B60022064B1A7000F00CF8F8BDC046F5
:10173000643A000000F8FF1F88004000C800400025
:101740007D08002010B504000E484821201A01F041
:1017500035F90F280CD80C4B1B78002B09D172B629
:1017600080231B06C340094A11680B43136062B60D
:1017700010BD074B1B78002BF1D02000FFF7A6FF10
:10178000F6E7C046C0F9FF1F7D080020A8FFFF1F35
:101790007C080020F0B55F4656464D464446F0B4FE
:1017A00083B0C04B1C781D00E4B2630730D5BE4B3C
:1017B0001B78002B29D0BD4A2C321378DBB2002BCA
:1017C00005D0013BDBB21370002B00D100BEB84B3B
:1017D0001B78DBB2002B07D0013BB54ADBB213709C
:1017E000002B01D1FFF756FFB24B1F78002F0CD111
:1017F000B14E3168002908D04B88002B05D09B00E2
:101800000B800320FFF706FF37600423A54A1370FF
:10181000082722003A4000D196E2A84BA84E1B7838
:10182000DAB294081309E400002B00D011E2341955
:10183000236867689806000F01380C2800D904E275
:1018400001F070F9B101B1010302030203020302C6
:1018500003020302DA010302030203020D00002166
:1018600001207B68914D3A686B63964F964B2A63D3
:1018700092B22360A9633161B16168712C00019358
:10188000BA421BD8D023DB009A4200D344E1812323
:101890005B009A4200D1F3E006D8802A00D1D2E062
:1018A000822A00D1D7E04DE1884B9A4200D121E154
:1018B000FF33FF339A4200D148E143E1844B9A421F
:1018C00000D16CE113D8A13B9A4200D1B3E0803340
:1018D0009A4200D036E16B8E734ADBB21370A023BC
:1018E00037009946203B2037B144984608E0794BB1
:1018F0009A4200D12AE1784B9A4200D126E121E1B7
:1019000042463B68134203D078680838FFF71AFF55
:1019100008374F45F4D10027704BB84699469A4690
:101920002300BB463C33F858002804D04768FFF733
:1019300009FF3800F8E723005F463C33F8502300E6
:101940004C33F8504B46D859002804D04768FFF76D
:10195000F9FE3800F8E75F465346D85123000C33B0
:10196000F8504246230052005C33D05223004246D6
:101970000833D05C023803280CD82300083301F068
:10198000C7F802060206002241465A5402E04246C7
:101990000121995401239C46E04443460437042B1B
:1019A000BED100224E4BE0461A7099460823E2460B
:1019B0009B4642464B4B4C49013A43448A5C9B0050
:1019C0001A7043469F005B461A4224D0FFF74EFD33
:1019D00043465B01002805D0F21808305060434AA6
:1019E000F25005E0F0504B464A461B780133137025
:1019F000FFF73CFD53463B43DB00002805D0F218BF
:101A000008305060019AF25005E0F0504B464A46CB
:101A10001B7801331370022200233A43D200B350E3
:101A2000032217439740023A9446E0444246F3515A
:101A3000052ABED18BE02E001B4B24361A786B1D75
:101A4000DA77030084E02E006B1DD977AB1DD977C0
:101A5000243602237CE07F22AB8E1A40042A71D800
:101A6000AB1DD977224B2E009C4602236F1D92009E
:101A7000F9776244127824361A4269D0F87767E021
:101A80007F23AA8E1A40042A5CD86B8E002B59D172
:101A9000174902208C469200624411781E0081434F
:101AA000117055E0802007407C08002010060020BF
:101AB0003D060020C1050020C405002090200740FD
:101AC00000F8FF1F81060000C8004000020300006C
:101AD00021090000210A00002122000064080020E2
:101AE0007D08002030C80110643A000088004000E2
:101AF000C02007407F23AA8E1A40042A22D86B8E6A
:101B0000002B1FD1AF4902208C469200624411780D
:101B10001E00014311701BE0AB4B6A8EA98E04338B
:101B20005E68002E0ED01888904209D158888842ED
:101B300006D1120A032A01D1337809E01B8907E094
:101B40000C33EDE70F229F4B1A7028E000231E0094
:101B5000EF8E9F4200D91F00B946402F01D9402384
:101B6000994630004946FFF707FC4B464E44FF1AA2
:101B700003D1B846402B05D011E040239846BB4224
:101B800000D9B84630004146FFF7F6FB43464644CD
:101B9000FF1A01D1402B02D16434AE6327800122A9
:101BA0008A4B1A7051E08A4D8A4B2A8E2E009A4237
:101BB00003D100210800FFF7DFFB874B2A6B9A4215
:101BC00017D1864B6A6B9A4213D13B78A92B10D15F
:101BD0007B78452B0DD1BB78C22B0AD1FB786B2BC0
:101BE00007D13300002105222C3308001A70FFF7BB
:101BF000C3FB7B4B236028E0754DAB6B2E009846F2
:101C0000002B16D02B0064331C882700402C00D9F1
:101C1000402739004046FFF7AFFB3300E41BA4B276
:101C200064331C80002C01D1402F01D13C0044447E
:101C3000AC63A0232A8EDB009A4206D10023303603
:101C400073706B8E674ADBB2137001225F4B1A70A0
:101C500076E0013B3619DCB2130070683B4008386F
:101C6000002B3FD0FFF76EFD5F4AA1008D58584B07
:101C7000002D21D0686888502A00083272601A1935
:101C8000107A03280FD81B1900F042FF0205080B39
:101C900003221A7207E002221A7204E005221A7265
:101CA00001E004221A72C823320700D4403B2A887C
:101CB00012041343336043E01A19107A03280BD837
:101CC00000F026FF3E3E020600221B191A7237E082
:101CD00001221B191A7233E03E40771EBE410236C4
:101CE00016722DE03268120C91B20180002A21D0C8
:101CF000374A43804360A300D518EF6B002F01D112
:101D0000E86301E0ED6C6860D318D8645C3263006E
:101D1000985A09189952FFF7A9FB002804D00830F7
:101D2000706033070AD407E0304A3060137801331B
:101D3000137005E03E4201D12D4B00E0284B33608B
:101D400008232C4A13702CE5012634421FD00223AD
:101D50001E4C1F492370284B0A716831596027496E
:101D600023482831D9600D2118601A619A61986062
:101D7000144B1970FF2322490B701A492B700A70FB
:101D8000204A13709F22204B1A70267013E063B212
:101D9000002B04DA0D220B4B1A7080232B700222C9
:101DA000144204D016490B78DBB20B702A70102352
:101DB0001C4200D02B7003B03CBC90469946A24612
:101DC000AB46F0BDC0200740643A000094200740B5
:101DD000100600202120000021090003010004005A
:101DE000C800400098200740640800207D080020BB
:101DF000880040008020074000F8FF1F9006002068
:101E0000882007408C20074084200740F8B5814B8C
:101E10005F469B46804B56469A4620234D46444695
:101E200098467E4BF0B499464027802680257C4C0E
:101E3000F602ED0008E023682B420DD123681B0554
:101E400035D42368DB045DD423683342F3D0FFF735
:101E5000A1FC23682B42F1D04146724B1A79114202
:101E600011D0DB79D9B25B461A78002301323F2AC0
:101E700000DC13006C4A12789A4204D06B4AD154A9
:101E80005A46DBB213706749CB78DBB25AB2002AEC
:101E90007CDB1F42D2D0634B1A791742CED000228E
:101EA00063490A702C32DA7023681B05C9D5414694
:101EB000604B1A79114211D0DB79D9B253461A78A6
:101EC000002301323F2A00DC13005B4A12789A4259
:101ED00004D05A4AD1545246DBB213705549CB78DC
:101EE000DBB25AB2002A3ADB1F42AAD0514B1A7910
:101EF0001742A6D0002252490A702C32DA702368A9
:101F0000DB04A1D54B4642461B791A4212D04B4600
:101F1000DB79D9B24B4B1A78002301323F2A00DC1F
:101F20001300494A12789A4204D0484AD154454A8B
:101F3000DBB213704B46DB78DBB25AB2002A3DDBD2
:101F40001F4200D171E74B461B791F4200D16CE75D
:101F500000233F4A13704A462C33D37065E70A7951
:101F600052B2002AC0DA3B4A10783B4A1278D2B209
:101F7000904244D00132272A3BD8D1B23748825C04
:101F80002C48D2B2C271344A1170ADE70A7952B20C
:101F9000002A00DB7DE7324A1078324A1278D2B24A
:101FA000904229D001323F2A20D8D1B22E48825CFB
:101FB0001C48D2B2C2712B4A11706AE74A461279A4
:101FC00052B2002ABCDA294A1178294A1278D2B2D0
:101FD00091421AD00132272A14D8D1B22548825C06
:101FE0004846D2B2C271224A1170A9E700210022EC
:101FF000DCE700210022C1E76C22CA7049E76C22AD
:10200000CA7071E700210022E8E76C224946CA70D5
:1020100096E7C046D90700206907002000C00640A7
:102020003480044000A00640DA070020DC070020CE
:102030006008002000B006406A0700206C070020FE
:10204000D8070020F8060020F9060020FC06002032
:1020500068070020AC070020AD070020B007002073
:102060001C0800201D080020200800203C0700203C
:102070003D0700204007002010B5FFF7C7FEC0460F
:10208000431E10B50020032B0FD872B6074A9900E3
:102090005118C86B002807D044685C325B00CC63E1
:1020A000995A0488091B995262B610BD1006002087
:1020B000FEE7C046FEE7C04610B50A4C216800287E
:1020C00007D06A460B18084884466244934202D2FD
:1020D0002360080010BD00F069FB0C2301210360A0
:1020E0004942F6E744FEFF1F00FEFFFF234B1B782B
:1020F000082B21D00A2B26D00C2B2BD03C22204B96
:102100001A60204B2A3A1A6001221F4B1A601F4B9B
:102110001B78012B2DD9042B07D9082B25D9102B7F
:102120001FD987221A4B1A6002E08422184B1A60CA
:102130000122184B1A7070470022114B1A60114B84
:1021400013321A60E0E738220D4B1A600D4B253A26
:102150001A60D9E734220A4B1A600A4B223A1A60F5
:10216000D2E786220A4B1A60E2E78522084B1A6002
:10217000DEE7074B7F321A60DAE7C04640FEFF1FFA
:1021800008B003400CB0034020B0034041FEFF1FE5
:1021900024B00340F903002080221E4BD20510B565
:1021A0001A608022002012061A601B4B1B4918601F
:1021B0001B4B1C4A1960282313601B4A1B4C1360DD
:1021C0001B4A13601B4A13601B4A13601B4A1360AF
:1021D000092222601A4C20601A4C21601A4C23609C
:1021E0001A4C23601A4C22601A4C20601A48016075
:1021F0001A490B601A490B601A4B1A60FFF776FFF9
:102200001920FFF7ABF9FFF751F91420FF30FFF762
:10221000A5F910BD00E100E004800340FFBF00000D
:10222000088003400C80034014800340008003407A
:102230001C800340248003402C80034034800340F2
:1022400004900340089003400C9003401490034016
:102250000090034004A0034008A003400CA00340EA
:1022600014A0034000A00340002210B532240A212C
:10227000324B33481A5501341A551134195302346C
:102280001A5501341A551134195302341A550134B0
:102290001A551134195302341A5501341860198132
:1022A0005861998398621986D863186558665A6090
:1022B0009A72DA729A619A77DA77DA621A645A65F0
:1022C0009A661A551134195302341A5501341A55A5
:1022D0000934185104341A510434195302341A556C
:1022E00001341A550934185104341A51043419535D
:1022F00002341A5501341A550934185104341A514C
:102300000434195302341A5501341A55093418513A
:1023100004341A510434195302341A5501341A552D
:10232000093498671851E0201A5004301952DC31F2
:102330005A540131DA675A5410BDC046FC030020DC
:102340005C3A000010B5254B1A7992060ED5244947
:10235000DB790A78D8B2013200233F2A1ADD4A78A5
:10236000934203D0CA18DBB210710B701B4AD378AA
:10237000DBB259B2002912DB40221A4209D0174BB6
:1023800019790A4205D00020154930328854443A60
:10239000DA7010BD13004A789342E3D1E6E7117971
:1023A00049B20029E8DA44200D490C5C0130085C90
:1023B000C0B284420FD0421C272A09D8D0B2482488
:1023C0008A18125D054CD2B2E27145228854D3E7D7
:1023D00000200022F3E76C21D170CDE700C0064059
:1023E000F806002010B5284B1A79920612D5DB7931
:1023F0002649D8B27123CA5C002301323F2A1DDD71
:1024000072228A5C934205D07422CC18A054DBB2AD
:10241000033A8B541C4AD378DBB259B2002913DB40
:1024200040221A4209D0184B19790A4205D00020DF
:10243000174920328854343ADA7010BD13007222E2
:102440008A5C9342E0D1E5E7117949B20029E7DAE5
:1024500034210F48445C0131415CC9B28C420FD039
:102460004A1C272A09D8D1B238248218125D064C9A
:10247000D2B2E27135228154D2E700210022F3E783
:102480006C21D170CCE7C04600B00640F8060020B1
:102490007807002010B5284B1A79920612D5DB79FF
:1024A0002649D8B26123CA5C002301323F2A1DDDD0
:1024B00062228A5C934205D06422CC18A054DBB21D
:1024C000033A8B541C4AD378DBB259B2002913DB90
:1024D00040221A4209D0184B19790A4205D000202F
:1024E0001749283288543C3ADA7010BD1300622232
:1024F0008A5C9342E0D1E5E7117949B20029E7DA35
:1025000024210F48445C0131415CC9B28C420FD098
:102510004A1C3F2A09D8D1B228248218125D064CE1
:10252000D2B2E27125228154D2E700210022F3E7E2
:102530006C21D170CCE7C04600A00640780700208F
:10254000F807002072B60020044B5B6F002B02D00E
:1025500001305B68FAE762B67047C046F8070020B2
:1025600070B584B072B670234121414A1370414B5B
:102570001970414B323919708023137013785BB294
:10258000002BFBDA3D4B1C6862B63D4B9C4201D8E8
:102590000A235C430A21200000F096FA01AD303195
:1025A000297020000A2100F009FA061E46D00024F6
:1025B00030000A2100F088FA01343031295530000A
:1025C0000A2100F0FBF9061EF2D16B4605331855BF
:1025D0000023EA5C295DE9542A550133013CA342FA
:1025E000F7DB2A78002A2BD0264B5A806A78002AFB
:1025F0002BD09A80AA78002A29D0DA80EA78002A9B
:1026000027D01A812A79002A25D05A816A79002A8E
:1026100023D09A81AA79002A21D0DA81EA79002A86
:102620001FD01A822A7A002A1DD05A826A7A002A7A
:102630001BD09A8216221A7004B070BD6870D0E761
:102640000022104B52000232F5E70122FAE7022283
:10265000F8E70322F6E70422F4E70522F2E7062270
:10266000F0E70722EEE70822ECE70932EAE7C04686
:10267000000002400700024006000240080002403D
:102680007F96980090FFFF1FF0B5474680B4434DFA
:10269000AC7D002C16D07C23414EF25C002A11D177
:1026A0000132F25422422DD100227C23F2546307DE
:1026B00008D53C4B98469B68002B03D0EFF305836D
:1026C000002B02D004BC9046F0BDEFF3108272B62E
:1026D00043469868002831D043461B7B002B2DD100
:1026E0000121444621734169A160002900D08B611A
:1026F000002A00D162B60024836844779847434695
:102700001C73DFE7274B1F689846002F36D03988A7
:102710007888814216DD3B181B7A002B12D0091AEB
:10272000002304E01A18BA18127A002A02D00133E2
:102730008B42F7D101239C43AC75B5E7002AC1D188
:1027400062B6BFE718484821381A00F037F90F2859
:1027500010D843465B79002B03D043461B79002BEE
:1027600017D172B680231B06C340AA691343AB611D
:1027700062B6AC7D002342461360DBE71B79002B79
:10278000D8D00220FFF77CFC4346071E1860BED15C
:10279000D0E73800FEF79AFFECE7C04690FFFF1F36
:1027A000F807002078080020C0F9FF1F014B1868C7
:1027B0007047C046D803002070B50D4E0D4D002463
:1027C000AD1BAD1005D0A300F35801349847A542C6
:1027D000F9D101F0E1F9084E084D0024AD1BAD1010
:1027E00005D0A300F35801349847A542F9D170BD34
:1027F000A43B0000A43B0000A43B0000B03B000051
:1028000070B583073FD0541E002A3BD0CEB20300E0
:10281000032503E0621E002C34D0140001335A1E3D
:1028200016702B42F6D1032C24D9FF250D402A0225
:1028300015432A0415430F2C11D92600103E3609E2
:10284000013636011A009B19156055609560D560F8
:1028500010329342F8D10F221440032C0AD9261FBC
:10286000B6080136B6001A009B1920C29342FCD16B
:1028700003221440002C05D0C9B21C191970013371
:102880009C42FBD170BD14000300CCE7034B10B594
:10289000002B02D0024800F005F810BD0000000037
:1028A000B528000010B5010000230022002000F030
:1028B0001BF810BD70B5094B094CE41AA41009D0DF
:1028C000084AA518AD00ED182B68013C9847043D57
:1028D000002CF9D101F06CF970BDC0460000000079
:1028E00000000000FFFFFF3FF8B544465F46564634
:1028F0004D469B462F4BF0B41C68A4235B0005009B
:10290000E0580E00904600284BD043681F2B0DDC8A
:102910005C1C002D21D102339B0044601E5000201E
:102920003CBC90469946A246AB46F8BD224B002BD4
:102930003CD0C820400000E000BF002836D0A422D0
:1029400000235200A15843600160A05040328350E0
:10295000043283500124002DDDD09A009146814439
:10296000424688214F467A50C42252009046804405
:1029700042468739994012688A460A43944642463D
:1029800061461160842249465F4652008F50022DF5
:10299000C1D1020055468D32FF3211680D431560DA
:1029A000B9E720004D30FF30E050AEE70120404253
:1029B000B6E7C046D43A00000000000000224308F9
:1029C0008B4274D303098B425FD3030A8B4244D3F7
:1029D000030B8B4228D3030C8B420DD3FF22090239
:1029E00012BA030C8B4202D31212090265D0030BF8
:1029F0008B4219D300E0090AC30B8B4201D3CB03EE
:102A0000C01A5241830B8B4201D38B03C01A52412F
:102A1000430B8B4201D34B03C01A5241030B8B4231
:102A200001D30B03C01A5241C30A8B4201D3CB021C
:102A3000C01A5241830A8B4201D38B02C01A524101
:102A4000430A8B4201D34B02C01A5241030A8B4204
:102A500001D30B02C01A5241CDD2C3098B4201D31C
:102A6000CB01C01A524183098B4201D38B01C01A9A
:102A7000524143098B4201D34B01C01A5241030911
:102A80008B4201D30B01C01A5241C3088B4201D3C0
:102A9000CB00C01A524183088B4201D38B00C01A6D
:102AA000524143088B4201D34B00C01A5241411A94
:102AB00000D20146524110467047FFE701B50020A1
:102AC00000F006F802BDC0460029F7D076E770474F
:102AD0007047C0461C2101231B04984201D3000CFF
:102AE00010391B0A984201D3000A08391B09984281
:102AF00001D30009043902A2105C40187047C04697
:102B000004030202010101010000000000000000B6
:102B100002B4714649084900095C49008E4402BC70
:102B20007047C04603B47146490840004900095A3D
:102B300049008E4403BC70478446081C6146FFE789
:102B40001FB500F02FFB002801D40021C8421FBD93
:102B500010B500F0BBFA4042013010BD10B500F0D6
:102B600021FB002801DB002010BD012010BDC04664
:102B700010B500F017FB002801DD002010BD01207A
:102B800010BDC04610B500F0C9FA002801DC0020D5
:102B900010BD012010BDC04610B500F0BFFA0028DE
:102BA00001DA002010BD012010BDC046F8B54A0270
:102BB000430244004E00C50F240E28009B09360E28
:102BC000C90F92098D4259D0A01B002800DC8DE06E
:102BD000002E1AD1002A00D079E05A0704D00F2223
:102BE0001A40042A00D004335A0138D50134FF2C8E
:102BF00000D189E028009B015B0AE4B25B02E40596
:102C00005B0A2343C0071843F8BDFF2CE5D08021A1
:102C1000C9040A431B2800DD89E016002021C640B4
:102C2000081A8240511E8A4132439B1A5A0114D518
:102C30009B019E093000FFF74DFF05388640844216
:102C400065DC041B330020200134E340041BA64054
:102C5000721E964100243343BFE75A07BFD1DF08F5
:102C60002800FF2C2FD1002F00D187E08022D20333
:102C700013003B435B025B0AFF24BFE7A11B002953
:102C800049DD002E29D0FF2CA7D08026F604324340
:102C90001B2900DD8DE017002026CF40711A8A40E5
:102CA000511E8A413A439B185A01D6D50134FF2C54
:102CB00064D0012276491A405B080B4013438CE72D
:102CC000031ECAD100207B025B0AE4B296E70138FA
:102CD0000028AAD0FF2C9DD17FE7002A00D17CE7F5
:102CE00001390029DFD0FF2CD2D176E7002820D18E
:102CF000601CC0B2012853DD80279E1AFF043740B4
:102D00002FD0D61A0D0095E72800002376E7614BF7
:102D1000241A334061E700294DD1611CCEB2012E47
:102D20002FDDFF292AD09B185B080C0055E70122F4
:102D30007BE7002C1BD1002B5BD0C04300280CD0BC
:102D4000FF2E7ED01B2800DD92E01D002024C54010
:102D5000201A8340581E83412B43D31A34000D00A0
:102D600064E7002E00D065E700200024ABE7FF2ECB
:102D700067D08024E40440422343E3E7FF24002398
:102D80003CE7002C61D1002B7ED0002A00D124E743
:102D90009B185A0100D460E73E4A0C0013401CE720
:102DA000002C1ED1002B2FD1002A66D013000D005D
:102DB00013E7012277E7002C1FD1002B5AD0C9431B
:102DC00000290BD0FF2E50D01B295FDC1F002024D0
:102DD000CF40611A8B40591E8B413B439B183400F6
:102DE00062E7002B1CD1002A4AD013000D00FF24FB
:102DF000F3E6130034000D00EFE6FF2E35D08024FB
:102E0000E40449422343DFE7002A00D1E5E68027B6
:102E1000981AFF04074000D152E7D31A0D00DCE6F0
:102E2000FF24002A00D1D8E68020DB08C00303423B
:102E300004D0D208024201D113000D00DB00FF24B0
:102E4000CBE61300FF240D00C7E6002B0DD0FF24B6
:102E5000002A00D1C1E68021DB08C9030B42EDD076
:102E6000D2080A42EAD11300E8E71300FF24B4E6CF
:102E7000012372E713003400AFE60027002022E7A9
:102E800080270020FF03F1E61300A6E60123A5E753
:102E9000FFFFFF7DFFFFFFFBF0B5564644465F4650
:102EA0004D46F0B444024600C70F83B08846650A19
:102EB000360EBA463DD0FF2E22D00023EC008025EE
:102EC00099469B46ED0425437F3E43465C025800ED
:102ED000DB0F640A000E984636D0FF2830D08023DE
:102EE0000021E400DB041C437F38301A019048467F
:102EF00042460843724E800030587A40130087469D
:102F0000002D44D108239946063B9B46DDE701226C
:102F1000FF2000241A406402C305640AD2071C4340
:102F20001443200003B03CBC90469946A246AB46F1
:102F3000F0BD002D20D104239946033B9B46C4E7F6
:102F4000002C17D1022102E0002C0AD10121321AF3
:102F500001924A4643460A435A48920082587B40AF
:102F600097462000FFF7B6FD431F76309C40404255
:102F70000021BAE70321B8E72800FFF7ABFD431FA4
:102F80009D4000237630464299469B469DE70C23A0
:102F90009946093B9B4698E780240022E403FF20E2
:102FA000B9E70024C2468B465A465346022AAED0A1
:102FB000032A7DD0012A31D1012200201A400024A9
:102FC000A9E70122101A1B2856DD1A400020002410
:102FD000A1E78023DB031D424BD18023DB032B437E
:102FE0005C02640A3A00FF2095E76D0160018542AA
:102FF00030D2019A0024013A01921B2201272900B4
:1030000064006D00002901DBA84201D82D1A3C4361
:10301000013A002AF3D16A1E95412C4301987F3072
:103020000028CEDD620704D00F222240042A00D0FF
:103030000434220103D5244A019814408030FE282C
:1030400000DD64E70122A401640AC0B21A4062E70D
:103050002C00A9E72D1A1A220124CFE76B02BCD558
:1030600000248023DB031C436402640A4246FF20E1
:1030700051E71C42B3D1F4E721002022C140101ACD
:103080008440621E94410C43620704D00F22224008
:10309000042A00D00434620104D5012201201A4020
:1030A000002438E70122A401640A1A40002032E714
:1030B0008023DB031C436402640A5246FF202AE794
:1030C000D83A0000183B0000FFFFFFF7430270B53D
:1030D00042004C005D0AC30F4802120E460A240E3D
:1030E000C90FFF2A0FD0FF2C11D00120A24200D01F
:1030F00070BDB542FCD18B420DD0002AF8D128001A
:10310000431E9841F4E70120002DF1D1EBE70120A7
:10311000002EEDD1E9E70020EAE7C0464302F0B512
:1031200042005D0AC30F4802440A4800120E000E16
:10313000C90FFF2A1FD0FF2822D0002A09D16E42D2
:103140006E4100280FD1002C0DD10020002D09D098
:1031500005E0002801D1002C01D08B4213D0584249
:1031600001231843F0BD002EF7D048424141012011
:1031700049420843F6E7002DDDD002204042F1E746
:10318000002CDAD0F9E78242E9DC04DBA542E6D87C
:103190000020A542E6D25842434101205B42184339
:1031A000E0E7C0464302F0B542004C005E0AC30FA0
:1031B0004802120E450A240EC90FFF2A17D0FF2C11
:1031C00019D0002A0BD170427041002C17D0002872
:1031D00007D048424141012049420843F0BD002C3C
:1031E00013D08B4214D0584201231843F6E7022033
:1031F000002EF3D1E3E70220002DEFD1E1E7002D0F
:10320000E5D10020002EE9D0EDE7002DE9D1EAE775
:10321000A242E8DC04DBAE42E5D80020AE42DDD2BB
:103220005842434101205B421843D7E7F0B5574667
:103230004E4645464300E0B446028846760A1F0ED5
:10324000C40F002F47D0FF2F25D0002380259A469A
:103250009946F600ED042E437F3F434642465D0209
:10326000D20F5B006D0A1B0E904640D0FF2B39D069
:1032700080220020ED00D20415437F3BFB1842461C
:103280005746591C62408C4607430F2F5CD86F4944
:10329000BF00C9598F46002E45D108239A46063BE8
:1032A0009946DAE7424602282DD0032800D1C3E030
:1032B000012800D0A2E0002500260240D4B2760208
:1032C000ED05760A2E43E407264330001CBC9046E9
:1032D0009946A246F0BD002E1AD104239A46033B1C
:1032E0009946BAE72A00511E8A41901CC6E7012080
:1032F000002DC3D02800FFF7EDFB431F76309D4023
:1033000043420020BAE70124FF2514400026D6E7F7
:103310003000FFF7DFFB431F9E400023763047421B
:103320009A46994699E70C239A46093B994694E7B1
:1033300080260024F603FF25C1E735004846B2E7A2
:10334000350022004846AEE72904090C0800370C76
:103350003604360C2C0C7943704367437443060CD7
:1033600064183619B14203D980214902884647447E
:103370000004000C310409188D01681E8541890E76
:103380002943350CED19AD010D43290104D5012365
:1033900069081D4063460D4319007F31002925DD72
:1033A000680704D00F202840042800D004352801E5
:1033B00003D5274980330D401900FE29A3DC0124E1
:1033C000AD016E0A1440CDB279E78020C0030642F9
:1033D00007D0054205D128434602760A4446FF2518
:1033E0006DE706437602760AFF2568E70124611A35
:1033F0001B2905DD14400025002660E76346CBE766
:103400002E002023CE40591A8D406B1E9D412E4325
:10341000730704D00F233340042B00D0043673010C
:1034200004D5012401251440002648E70124B601F3
:10343000760A1440002542E780260124F6032E4335
:103440007602760A1440FF2539E7C046583B000053
:10345000FFFFFFF7F8B54A024E0043024400240E76
:10346000C50F9B09360EC90F9209FF2E00D183E0CC
:1034700001204140A01BA9425CD0002800DC95E05F
:10348000002E1CD1002A00D081E05A0704D00F2260
:103490001A40042A00D004335A013BD50134FF2CD2
:1034A00000D191E001209B015B0AE4B205405B0280
:1034B000E4055B0AED0723432B431800F8BDFF2CFE
:1034C000E3D08021C9040A431B2800DD90E01600E8
:1034D0002021C640081A8240511E8A4132439B1A5D
:1034E0005A0115D59B019E093000FFF7F3FA053804
:1034F000864084426CDC041B330020200134E3400E
:10350000041BA640721E964100243343BDE70D0004
:103510005A07BCD1DF0801231D40FF2C33D1002FF7
:1035200000D190E08022D20313003B435B025B0A90
:10353000FF24BCE700284FDD002E2ED0FF2CA4D0A6
:103540008025ED042A431B2800DD97E01600202586
:10355000C640281A8240501E824132439B185A01AD
:10356000D5D50134FF2C6DD001227B481A405B0871
:10357000034013430D0088E7002A00D07AE777E77D
:10358000031EC5D100257B025B0AE4B28FE7013838
:103590000028A4D0FF2C97D177E7002A00D174E748
:1035A00001380028DAD0FF2CCDD16EE7002821D1D8
:1035B000601CC0B2012858DD80279E1AFF043740E6
:1035C0002FD0D61A0D008FE701231D4000236EE790
:1035D000624B241A334058E7002851D1601CC6B210
:1035E000012E33DDFF282DD09B185B0804004CE72B
:1035F000012274E7002C1AD0FF2E1FD08024E4048F
:10360000404223431B2800DD96E01D002024C540D6
:10361000201A8340581E83412B43D31A34000D00D7
:103620005EE7002E00D05FE700250024ABE7002B0B
:1036300044D0C0430028F0D0FF2EE3D11300FF2474
:103640000D0022E70D00FF24002330E7002C5DD1A0
:10365000002B7DD0002A00D117E79B185A0100D417
:1036600056E73E4A040013400FE7002C1ED1002B02
:103670002FD1002A65D013000D0006E701226DE767
:10368000002C1FD1002B59D0C04300280BD0FF2E97
:103690004FD01B285EDC1D002024C540201A83402B
:1036A000581E83412B439B18340058E7002B1CD134
:1036B000002A49D013000D00FF24E6E61300340071
:1036C0000D00E2E6FF2E34D08024E4044042234380
:1036D000DFE7002A00D1D8E68027981AFF040740C8
:1036E00000D14DE7D31A0D00CFE6FF24002A00D108
:1036F000CBE68020DB08C003034204D0D20802429C
:1037000001D113000D00DB00FF24BEE6002B10D01A
:10371000FF24002A00D1B8E68020DB08C003034262
:1037200003D0D208024200D11300DB000D00FF24B9
:10373000ABE61300FF24A8E601236EE71300340074
:10374000A3E6002700251EE780270025FF03E9E602
:1037500013009AE60123A6E7FFFFFF7DFFFFFFFBB3
:103760004302590A4300C20F1B0E00207E2B0EDDC0
:103770009D2B0DDC802000040143952B0BDC962053
:10378000C31AD9400B005842002A00D118007047D4
:10379000034BD018FBE7963B99400B00F3E7C0467C
:1037A000FFFFFF7F70B5002830D0C317C5185D40FC
:1037B000C40F2800FFF78EF99E231B1A962B0DDCF1
:1037C0009622D21A95406A02520AD8B25202C00515
:1037D000520AE40702432243100070BD992B19DC02
:1037E0009922D21A9540124A2A40690704D00F2123
:1037F0000D40042D00D00432510103D50C4B1A406A
:103800009F231B1A9201520AD8B2DFE7002400203E
:103810000022DBE705222E00121AB921D6402A0029
:10382000C91A8A40551EAA4135001543DBE7C04638
:10383000FFFFFFFBA20D0000A20D0000A20D000083
:10384000E60D0000E60D0000A20D0000E60D0000F0
:10385000A20D0000E60D0000A20D0000A20D000068
:10386000A20D0000E60D0000A20D0000A20D000058
:10387000030B0702060801050900040A420000F8CC
:1038800040A0044001000000420000F844A00440B1
:1038900002000000C00000F800C004400100000069
:1038A000000000F80490044002000000000000F84E
:1038B0000890044004000000C00000F81CC0044050
:1038C00080000000C00000F810C00440100000009C
:1038D000C00000F808C0044004000000C00000F868
:1038E0000CC0044008000000800000F80CB0044048
:1038F00008000000800000F810B004401000000034
:10390000800000F818B0044040000000800000F87B
:103910001CB0044080000000800000F814B0044097
:1039200020000000C00000F804C0044002000000B5
:10393000800000F800B0044001000000400000F8E2
:1039400000A0044001000000400000F804A0044072
:1039500002000000400000F80CA004400800000035
:10396000400000F808A0044004000000C00000F877
:1039700014C0044020000000C00000F818C004403B
:1039800040000000800000F804B004400200000085
:10399000800000F808B0044004000000020100F8B4
:1039A00050D0044010000000020100F854D0044040
:1039B00020000000030100F878D00440400000001F
:1039C00001020300040507060B08090A0E0F0D0C7F
:1039D0001112131017141615181C1D1B1F1A1E196F
:1039E00021222720262325240E0F1011120000006B
:1039F000050E08090D0C06070F0B004417FF050EF6
:103A000008090D0C06070F0B004417FFFFFFFFFF0F
:103A1000FFFFFFFFFFFF1A1B02030405060708094B
:103A20000A0B0C0D0E0F101112131415161718197E
:103A30001A1B1C1D1E1F202122232425262728296E
:103A40002A000000000102030405060708090A0B0A
:103A50000C00000000000000000000004514000001
:103A6000B513000015191519000100007CFFFF1F98
:103A7000120000000002000008FFFF1F730000009A
:103A800000220100E4FEFF1F2100000000210100D0
:103A900064FFFF1F0900000000030000E0FEFF1F9D
:103AA0000000000001030904B4FEFF1F0000000035
:103AB00002030904CCFEFF1F0000000003030904F9
:103AC00090FFFF1F00000000000000000000000049
:103AD00000000000B0FFFF1FEA2F00000E2F0000C3
:103AE000CC2F0000A42F0000CC2F0000982F000046
:103AF000CC2F0000A42F00000E2F00000E2F00007E
:103B0000982F0000A42F000050300000503000001B
:103B100050300000D22F00000E2F00000E2F0000AA
:103B2000B82F0000A22F0000B82F0000982F00002F
:103B3000B82F0000A22F00000E2F00000E2F000053
:103B4000982F0000A22F00005030000050300000DD
:103B5000503000005C30000048330000A632000006
:103B6000A6320000A43200003A3300003A330000CD
:103B700030330000A43200003A330000303300003C
:103B80003A330000A432000040330000403300000C
:103B900040330000CA330000F8B5C046F8BC08BC8A
:103BA0009E4670478D2800003904000069220000FD
:043BB000F8B5C0465E
:103BB4000A04000088080020B1130000B1130000BB
:103BC400B1130000B1130000B1130000B1130000E1
:103BD400B1130000B1130000B1130000B1130000D1
:103BE400B1130000B1130000B1130000B1130000C1
:103BF400B1130000B1130000B1130000B1130000B1
:103C0400B1130000B1130000B1130000B1130000A0
:103C1400B1130000B1130000B1130000B113000090
:103C2400B113000018035400650065006E007300B2
:103C340079006400750069006E006F0014034D0084
:103C4400690078006500720020004F006E00650076
:103C54000403090406C9FF0904A15C7508150026BC
:103C6400FF0095400975810295200976910295041B
:103C74000976B102C000000009027300020100C00D
:103C84003209040000020103000007240100012599
:103C94000006240201010006240202020009240392
:103CA40001030102010009240302040101010009C6
:103CB40005040240000000000525010101090583F7
:103CC400024000000000052501010309040100026F
:103CD40003000000092111010001222100070581D0
:103CE4000340000107050203200002001201100135
:103CF40000000040C01685047302010203010000A5
:103D04000C030000000000000000000000000000A0
:103D14000000000000000100FFFFFFFF00000000A2
:103D2400000000009C020020040300206C0300201B
:103D3400000000000000000000000000000000007F
:103D4400000000000000000000000000000000006F
:103D5400000000000000000000000000000000005F
:103D6400000000000000000000000000000000004F
:103D7400000000000000000000000000000000003F
:103D8400000000000000000000000000000000002F
:103D9400000000000000000000000000000000001F
:103DA400000000000000000000000000000000000F
:103DB40000000000000000000000000000000000FF
:103DC40000000000000000000100000000000000EE
:103DD4000E33CDAB34126DE6ECDE05000B000000B3
:103DE40000000000000000000000000000000000CF
:103DF40000000000000000000000000000000000BF
:103E040000000000000000000000000000000000AE
:103E1400000000000000000000000000000000009E
:0C4144000000000000000000B0FFFF1FA2
:00000001FF
